:1000000012C019C018C017C016C015C014C013C044
:1000100012C011C010C00FC00EC00DC00CC00BC06C
:100020000AC009C008C011241FBECFE5D4E0DEBF5E
:10003000CDBF1CD029C0E4CF16B30CB91370110F7B
:10004000110F06B30370102B110F110F06B30370BD
:10005000102B110F110F06B30370012BEDCF16B348
:1000600004D003D000C01CB9FACF08958C9A86EC56
:1000700080BD539A80E18A95F1F796B386B39817BD
:0C008000E9F39099ECCFD8CFF894FFCFB3
:00000001FF
