:1000000013C022C021C020C01FC01EC01DC01CC004
:100010001BC01AC019C018C017C016C015C014C024
:1000200013C012C011C010C011241FBECFEFD2E008
:10003000DEBFCDBF11E0A0E0B1E001C01D92A33052
:10004000B107E1F74DD080C0DBCFE0E0F1E0808187
:100050008EBD0DB407FEFDCF8EB5819381E0E330F8
:10006000F807A9F708958EBD0DB407FEFDCF8EB534
:1000700008952A988FEFF7DF2A9A80740895CF9316
:10008000DF931F92CDB7DEB72A988F7180626983A4
:10009000EADF6981862FE7DF2A9A0F90DF91CF91FF
:1000A00008952A9881E6DFDFD0DF2A9A60E487E0AE
:1000B000E6CF62E085E0E3DF63E081E1E0DF6BE46F
:1000C00080E0DDCF84B1837C84B984B18C6284B953
:1000D00081E58CBD81E08DBD08952A9A229AF2CFE8
:1000E000CF93DF931F92CDB7DEB7F7DF2FE738E36B
:1000F00081E0215030408040E1F700C00000D9DFAE
:10010000B8DF8983CEDF2A989FE7E8E3F1E09150DA
:10011000E040F040E1F700C000008981882349F009
:100120002FEF3EE984E2215030408040E1F700C0EB
:1001300000002A9A9FEFE9E6F8E19150E040F04094
:0C014000E1F700C00000DCCFF894FFCF16
:00000001FF
