:1000000013C022C021C020C01FC01EC01DC01CC004
:100010001BC01AC019C018C017C016C015C014C024
:1000200013C012C011C010C011241FBECFEFD2E008
:10003000DEBFCDBF11E0A0E0B1E001C01D92A33052
:10004000B107E1F71AD072C0DBCF8EBD0DB407FE49
:10005000FDCF8EB50895CF93DF931F92CDB7DEB756
:100060002A988F7180626983F0DF6981862FEDDFC6
:100070002A9A0F90DF91CF9108952A9A229A84B1FB
:10008000837C84B984B18C6284B981E58CBD81E0C4
:100090008DBD62E085E0DFDF63E081E1DCDF60E011
:1000A00081E0D9DF2A982FEF80E792E0215080404D
:1000B0009040E1F700C000002A9A6AE480E0CBDFBC
:1000C0008FEC97E00197F1F700C000006AE480E050
:1000D000C2DF2A9881EEB9DF2A9A2A9880EAB5DF32
:1000E000809100018EBD0DB407FEFDCF809101010E
:1000F0008EBD0DB407FEFDCF809102018EBD0DB403
:1001000007FEFDCF2A9A9AE19A95F1F700C068E4BC
:1001100080E0A1DF2FEF89E698E1215080409040F8
:10012000E1F700C0000060E287E0BBCFF894FFCFAA
:00000001FF
